{
  "_format": "hh-sol-artifact-1",
  "contractName": "KryptoPunks",
  "sourceName": "contracts/nft-stake/KryptoPunks.sol",
  "abi": [
    {
      "inputs": [
        {
          "internalType": "uint256",
          "name": "_maxSupply",
          "type": "uint256"
        },
        {
          "internalType": "uint256",
          "name": "_cost",
          "type": "uint256"
        },
        {
          "internalType": "uint256",
          "name": "_maxMintAmountPerTx",
          "type": "uint256"
        }
      ],
      "stateMutability": "nonpayable",
      "type": "constructor"
    },
    {
      "inputs": [],
      "name": "ApprovalCallerNotOwnerNorApproved",
      "type": "error"
    },
    {
      "inputs": [],
      "name": "ApprovalQueryForNonexistentToken",
      "type": "error"
    },
    {
      "inputs": [],
      "name": "BalanceQueryForZeroAddress",
      "type": "error"
    },
    {
      "inputs": [],
      "name": "InvalidQueryRange",
      "type": "error"
    },
    {
      "inputs": [],
      "name": "KryptoPunks__ContractIsPaused",
      "type": "error"
    },
    {
      "inputs": [],
      "name": "KryptoPunks__InsufficientFunds",
      "type": "error"
    },
    {
      "inputs": [],
      "name": "KryptoPunks__InvalidMintAmount",
      "type": "error"
    },
    {
      "inputs": [],
      "name": "KryptoPunks__MaxMintAmountExceeded",
      "type": "error"
    },
    {
      "inputs": [],
      "name": "KryptoPunks__NftSupplyLimitExceeded",
      "type": "error"
    },
    {
      "inputs": [],
      "name": "KryptoPunks__QueryForNonExistentToken",
      "type": "error"
    },
    {
      "inputs": [],
      "name": "MintERC2309QuantityExceedsLimit",
      "type": "error"
    },
    {
      "inputs": [],
      "name": "MintToZeroAddress",
      "type": "error"
    },
    {
      "inputs": [],
      "name": "MintZeroQuantity",
      "type": "error"
    },
    {
      "inputs": [],
      "name": "NotCompatibleWithSpotMints",
      "type": "error"
    },
    {
      "inputs": [],
      "name": "OwnerQueryForNonexistentToken",
      "type": "error"
    },
    {
      "inputs": [],
      "name": "OwnershipNotInitializedForExtraData",
      "type": "error"
    },
    {
      "inputs": [],
      "name": "SequentialMintExceedsLimit",
      "type": "error"
    },
    {
      "inputs": [],
      "name": "SequentialUpToTooSmall",
      "type": "error"
    },
    {
      "inputs": [],
      "name": "SpotMintTokenIdTooSmall",
      "type": "error"
    },
    {
      "inputs": [],
      "name": "TokenAlreadyExists",
      "type": "error"
    },
    {
      "inputs": [],
      "name": "TransferCallerNotOwnerNorApproved",
      "type": "error"
    },
    {
      "inputs": [],
      "name": "TransferFromIncorrectOwner",
      "type": "error"
    },
    {
      "inputs": [],
      "name": "TransferToNonERC721ReceiverImplementer",
      "type": "error"
    },
    {
      "inputs": [],
      "name": "TransferToZeroAddress",
      "type": "error"
    },
    {
      "inputs": [],
      "name": "URIQueryForNonexistentToken",
      "type": "error"
    },
    {
      "anonymous": false,
      "inputs": [
        {
          "indexed": true,
          "internalType": "address",
          "name": "owner",
          "type": "address"
        },
        {
          "indexed": true,
          "internalType": "address",
          "name": "approved",
          "type": "address"
        },
        {
          "indexed": true,
          "internalType": "uint256",
          "name": "tokenId",
          "type": "uint256"
        }
      ],
      "name": "Approval",
      "type": "event"
    },
    {
      "anonymous": false,
      "inputs": [
        {
          "indexed": true,
          "internalType": "address",
          "name": "owner",
          "type": "address"
        },
        {
          "indexed": true,
          "internalType": "address",
          "name": "operator",
          "type": "address"
        },
        {
          "indexed": false,
          "internalType": "bool",
          "name": "approved",
          "type": "bool"
        }
      ],
      "name": "ApprovalForAll",
      "type": "event"
    },
    {
      "anonymous": false,
      "inputs": [
        {
          "indexed": true,
          "internalType": "uint256",
          "name": "fromTokenId",
          "type": "uint256"
        },
        {
          "indexed": false,
          "internalType": "uint256",
          "name": "toTokenId",
          "type": "uint256"
        },
        {
          "indexed": true,
          "internalType": "address",
          "name": "from",
          "type": "address"
        },
        {
          "indexed": true,
          "internalType": "address",
          "name": "to",
          "type": "address"
        }
      ],
      "name": "ConsecutiveTransfer",
      "type": "event"
    },
    {
      "anonymous": false,
      "inputs": [
        {
          "indexed": true,
          "internalType": "address",
          "name": "previousOwner",
          "type": "address"
        },
        {
          "indexed": true,
          "internalType": "address",
          "name": "newOwner",
          "type": "address"
        }
      ],
      "name": "OwnershipTransferred",
      "type": "event"
    },
    {
      "anonymous": false,
      "inputs": [
        {
          "indexed": true,
          "internalType": "address",
          "name": "from",
          "type": "address"
        },
        {
          "indexed": true,
          "internalType": "address",
          "name": "to",
          "type": "address"
        },
        {
          "indexed": true,
          "internalType": "uint256",
          "name": "tokenId",
          "type": "uint256"
        }
      ],
      "name": "Transfer",
      "type": "event"
    },
    {
      "inputs": [
        {
          "internalType": "address",
          "name": "to",
          "type": "address"
        },
        {
          "internalType": "uint256",
          "name": "tokenId",
          "type": "uint256"
        }
      ],
      "name": "approve",
      "outputs": [],
      "stateMutability": "payable",
      "type": "function"
    },
    {
      "inputs": [
        {
          "internalType": "address",
          "name": "owner",
          "type": "address"
        }
      ],
      "name": "balanceOf",
      "outputs": [
        {
          "internalType": "uint256",
          "name": "",
          "type": "uint256"
        }
      ],
      "stateMutability": "view",
      "type": "function"
    },
    {
      "inputs": [],
      "name": "baseExtension",
      "outputs": [
        {
          "internalType": "string",
          "name": "",
          "type": "string"
        }
      ],
      "stateMutability": "view",
      "type": "function"
    },
    {
      "inputs": [],
      "name": "baseURI",
      "outputs": [
        {
          "internalType": "string",
          "name": "",
          "type": "string"
        }
      ],
      "stateMutability": "view",
      "type": "function"
    },
    {
      "inputs": [],
      "name": "cost",
      "outputs": [
        {
          "internalType": "uint256",
          "name": "",
          "type": "uint256"
        }
      ],
      "stateMutability": "view",
      "type": "function"
    },
    {
      "inputs": [
        {
          "internalType": "uint256",
          "name": "tokenId",
          "type": "uint256"
        }
      ],
      "name": "explicitOwnershipOf",
      "outputs": [
        {
          "components": [
            {
              "internalType": "address",
              "name": "addr",
              "type": "address"
            },
            {
              "internalType": "uint64",
              "name": "startTimestamp",
              "type": "uint64"
            },
            {
              "internalType": "bool",
              "name": "burned",
              "type": "bool"
            },
            {
              "internalType": "uint24",
              "name": "extraData",
              "type": "uint24"
            }
          ],
          "internalType": "struct IERC721A.TokenOwnership",
          "name": "ownership",
          "type": "tuple"
        }
      ],
      "stateMutability": "view",
      "type": "function"
    },
    {
      "inputs": [
        {
          "internalType": "uint256[]",
          "name": "tokenIds",
          "type": "uint256[]"
        }
      ],
      "name": "explicitOwnershipsOf",
      "outputs": [
        {
          "components": [
            {
              "internalType": "address",
              "name": "addr",
              "type": "address"
            },
            {
              "internalType": "uint64",
              "name": "startTimestamp",
              "type": "uint64"
            },
            {
              "internalType": "bool",
              "name": "burned",
              "type": "bool"
            },
            {
              "internalType": "uint24",
              "name": "extraData",
              "type": "uint24"
            }
          ],
          "internalType": "struct IERC721A.TokenOwnership[]",
          "name": "",
          "type": "tuple[]"
        }
      ],
      "stateMutability": "view",
      "type": "function"
    },
    {
      "inputs": [
        {
          "internalType": "uint256",
          "name": "tokenId",
          "type": "uint256"
        }
      ],
      "name": "getApproved",
      "outputs": [
        {
          "internalType": "address",
          "name": "",
          "type": "address"
        }
      ],
      "stateMutability": "view",
      "type": "function"
    },
    {
      "inputs": [
        {
          "internalType": "address",
          "name": "owner",
          "type": "address"
        },
        {
          "internalType": "address",
          "name": "operator",
          "type": "address"
        }
      ],
      "name": "isApprovedForAll",
      "outputs": [
        {
          "internalType": "bool",
          "name": "",
          "type": "bool"
        }
      ],
      "stateMutability": "view",
      "type": "function"
    },
    {
      "inputs": [],
      "name": "maxMintAmountPerTx",
      "outputs": [
        {
          "internalType": "uint256",
          "name": "",
          "type": "uint256"
        }
      ],
      "stateMutability": "view",
      "type": "function"
    },
    {
      "inputs": [],
      "name": "maxSupply",
      "outputs": [
        {
          "internalType": "uint256",
          "name": "",
          "type": "uint256"
        }
      ],
      "stateMutability": "view",
      "type": "function"
    },
    {
      "inputs": [
        {
          "internalType": "uint256",
          "name": "_mintAmount",
          "type": "uint256"
        }
      ],
      "name": "mint",
      "outputs": [],
      "stateMutability": "payable",
      "type": "function"
    },
    {
      "inputs": [],
      "name": "name",
      "outputs": [
        {
          "internalType": "string",
          "name": "",
          "type": "string"
        }
      ],
      "stateMutability": "view",
      "type": "function"
    },
    {
      "inputs": [],
      "name": "owner",
      "outputs": [
        {
          "internalType": "address",
          "name": "",
          "type": "address"
        }
      ],
      "stateMutability": "view",
      "type": "function"
    },
    {
      "inputs": [
        {
          "internalType": "uint256",
          "name": "tokenId",
          "type": "uint256"
        }
      ],
      "name": "ownerOf",
      "outputs": [
        {
          "internalType": "address",
          "name": "",
          "type": "address"
        }
      ],
      "stateMutability": "view",
      "type": "function"
    },
    {
      "inputs": [
        {
          "internalType": "uint256",
          "name": "_state",
          "type": "uint256"
        }
      ],
      "name": "pause",
      "outputs": [],
      "stateMutability": "payable",
      "type": "function"
    },
    {
      "inputs": [],
      "name": "paused",
      "outputs": [
        {
          "internalType": "uint256",
          "name": "",
          "type": "uint256"
        }
      ],
      "stateMutability": "view",
      "type": "function"
    },
    {
      "inputs": [],
      "name": "renounceOwnership",
      "outputs": [],
      "stateMutability": "nonpayable",
      "type": "function"
    },
    {
      "inputs": [
        {
          "internalType": "address",
          "name": "from",
          "type": "address"
        },
        {
          "internalType": "address",
          "name": "to",
          "type": "address"
        },
        {
          "internalType": "uint256",
          "name": "tokenId",
          "type": "uint256"
        }
      ],
      "name": "safeTransferFrom",
      "outputs": [],
      "stateMutability": "payable",
      "type": "function"
    },
    {
      "inputs": [
        {
          "internalType": "address",
          "name": "from",
          "type": "address"
        },
        {
          "internalType": "address",
          "name": "to",
          "type": "address"
        },
        {
          "internalType": "uint256",
          "name": "tokenId",
          "type": "uint256"
        },
        {
          "internalType": "bytes",
          "name": "_data",
          "type": "bytes"
        }
      ],
      "name": "safeTransferFrom",
      "outputs": [],
      "stateMutability": "payable",
      "type": "function"
    },
    {
      "inputs": [
        {
          "internalType": "address",
          "name": "operator",
          "type": "address"
        },
        {
          "internalType": "bool",
          "name": "approved",
          "type": "bool"
        }
      ],
      "name": "setApprovalForAll",
      "outputs": [],
      "stateMutability": "nonpayable",
      "type": "function"
    },
    {
      "inputs": [
        {
          "internalType": "string",
          "name": "_newBaseURI",
          "type": "string"
        }
      ],
      "name": "setBaseURI",
      "outputs": [],
      "stateMutability": "payable",
      "type": "function"
    },
    {
      "inputs": [
        {
          "internalType": "uint256",
          "name": "_newCost",
          "type": "uint256"
        }
      ],
      "name": "setCost",
      "outputs": [],
      "stateMutability": "payable",
      "type": "function"
    },
    {
      "inputs": [
        {
          "internalType": "uint256",
          "name": "_newmaxMintAmount",
          "type": "uint256"
        }
      ],
      "name": "setMaxMintAmountPerTx",
      "outputs": [],
      "stateMutability": "payable",
      "type": "function"
    },
    {
      "inputs": [
        {
          "internalType": "bytes4",
          "name": "interfaceId",
          "type": "bytes4"
        }
      ],
      "name": "supportsInterface",
      "outputs": [
        {
          "internalType": "bool",
          "name": "",
          "type": "bool"
        }
      ],
      "stateMutability": "view",
      "type": "function"
    },
    {
      "inputs": [],
      "name": "symbol",
      "outputs": [
        {
          "internalType": "string",
          "name": "",
          "type": "string"
        }
      ],
      "stateMutability": "view",
      "type": "function"
    },
    {
      "inputs": [
        {
          "internalType": "uint256",
          "name": "tokenId",
          "type": "uint256"
        }
      ],
      "name": "tokenURI",
      "outputs": [
        {
          "internalType": "string",
          "name": "",
          "type": "string"
        }
      ],
      "stateMutability": "view",
      "type": "function"
    },
    {
      "inputs": [
        {
          "internalType": "address",
          "name": "owner",
          "type": "address"
        }
      ],
      "name": "tokensOfOwner",
      "outputs": [
        {
          "internalType": "uint256[]",
          "name": "",
          "type": "uint256[]"
        }
      ],
      "stateMutability": "view",
      "type": "function"
    },
    {
      "inputs": [
        {
          "internalType": "address",
          "name": "owner",
          "type": "address"
        },
        {
          "internalType": "uint256",
          "name": "start",
          "type": "uint256"
        },
        {
          "internalType": "uint256",
          "name": "stop",
          "type": "uint256"
        }
      ],
      "name": "tokensOfOwnerIn",
      "outputs": [
        {
          "internalType": "uint256[]",
          "name": "",
          "type": "uint256[]"
        }
      ],
      "stateMutability": "view",
      "type": "function"
    },
    {
      "inputs": [],
      "name": "totalSupply",
      "outputs": [
        {
          "internalType": "uint256",
          "name": "result",
          "type": "uint256"
        }
      ],
      "stateMutability": "view",
      "type": "function"
    },
    {
      "inputs": [
        {
          "internalType": "address",
          "name": "from",
          "type": "address"
        },
        {
          "internalType": "address",
          "name": "to",
          "type": "address"
        },
        {
          "internalType": "uint256",
          "name": "tokenId",
          "type": "uint256"
        }
      ],
      "name": "transferFrom",
      "outputs": [],
      "stateMutability": "payable",
      "type": "function"
    },
    {
      "inputs": [
        {
          "internalType": "address",
          "name": "newOwner",
          "type": "address"
        }
      ],
      "name": "transferOwnership",
      "outputs": [],
      "stateMutability": "nonpayable",
      "type": "function"
    },
    {
      "inputs": [],
      "name": "withdraw",
      "outputs": [],
      "stateMutability": "payable",
      "type": "function"
    }
  ],
  "bytecode": "0x60a06040526001600d553480156200001657600080fd5b50604051620038763803806200387683398181016040528101906200003c91906200033d565b6040518060400160405280601881526020017f4b727970746f2050756e6b7320436f6c6c65637469626c6500000000000000008152506040518060400160405280600381526020017f4b504300000000000000000000000000000000000000000000000000000000008152508160029080519060200190620000c092919062000276565b508060039080519060200190620000d992919062000276565b50620000ea6200017160201b60201c565b600081905550620001006200017160201b60201c565b620001106200017660201b60201c565b101562000130576200012f63fed8210f60e01b6200019e60201b60201c565b5b50506200015262000146620001a860201b60201c565b620001b060201b60201c565b81600b8190555080600c81905550826080818152505050505062000427565b600090565b60007fffffffffffffffffffffffffffffffffffffffffffffffffffffffffffffffff905090565b8060005260046000fd5b600033905090565b6000600960009054906101000a900473ffffffffffffffffffffffffffffffffffffffff16905081600960006101000a81548173ffffffffffffffffffffffffffffffffffffffff021916908373ffffffffffffffffffffffffffffffffffffffff1602179055508173ffffffffffffffffffffffffffffffffffffffff168173ffffffffffffffffffffffffffffffffffffffff167f8be0079c531659141344cd1fd0a4f28419497f9722a3daafe3b4186f6b6457e060405160405180910390a35050565b8280546200028490620003a3565b90600052602060002090601f016020900481019282620002a85760008555620002f4565b82601f10620002c357805160ff1916838001178555620002f4565b82800160010185558215620002f4579182015b82811115620002f3578251825591602001919060010190620002d6565b5b50905062000303919062000307565b5090565b5b808211156200032257600081600090555060010162000308565b5090565b60008151905062000337816200040d565b92915050565b60008060006060848603121562000359576200035862000408565b5b6000620003698682870162000326565b93505060206200037c8682870162000326565b92505060406200038f8682870162000326565b9150509250925092565b6000819050919050565b60006002820490506001821680620003bc57607f821691505b60208210811415620003d357620003d2620003d9565b5b50919050565b7f4e487b7100000000000000000000000000000000000000000000000000000000600052602260045260246000fd5b600080fd5b620004188162000399565b81146200042457600080fd5b50565b60805161342c6200044a60003960008181611093015261147a015261342c6000f3fe6080604052600436106101ee5760003560e01c806370a082311161010d578063a22cb465116100a0578063c66828621161006f578063c668286214610679578063c87b56dd146106a4578063d5abeb01146106e1578063e985e9c51461070c578063f2fde38b14610749576101ee565b8063a22cb465146105db578063b071401b14610604578063b88d4fde14610620578063c23dc68f1461063c576101ee565b806394354fd0116100dc57806394354fd01461052c57806395d89b411461055757806399a2557a14610582578063a0712d68146105bf576101ee565b806370a0823114610470578063715018a6146104ad5780638462151c146104c45780638da5cb5b14610501576101ee565b80633ccfd60b116101855780635bbb2177116101545780635bbb2177146103a05780635c975abb146103dd5780636352211e146104085780636c0360eb14610445576101ee565b80633ccfd60b1461034257806342842e0e1461034c57806344a0d68a1461036857806355f804b314610384576101ee565b8063136439dd116101c1578063136439dd146102b457806313faede6146102d057806318160ddd146102fb57806323b872dd14610326576101ee565b806301ffc9a7146101f357806306fdde0314610230578063081812fc1461025b578063095ea7b314610298575b600080fd5b3480156101ff57600080fd5b5061021a60048036038101906102159190612949565b610772565b6040516102279190612e24565b60405180910390f35b34801561023c57600080fd5b50610245610804565b6040516102529190612e3f565b60405180910390f35b34801561026757600080fd5b50610282600480360381019061027d91906129ec565b610896565b60405161028f9190612d79565b60405180910390f35b6102b260048036038101906102ad9190612869565b6108f4565b005b6102ce60048036038101906102c991906129ec565b610904565b005b3480156102dc57600080fd5b506102e5610916565b6040516102f29190612ebc565b60405180910390f35b34801561030757600080fd5b5061031061091c565b60405161031d9190612ebc565b60405180910390f35b610340600480360381019061033b9190612753565b610969565b005b61034a610c2d565b005b61036660048036038101906103619190612753565b610cb5565b005b610382600480360381019061037d91906129ec565b610cd5565b005b61039e600480360381019061039991906129a3565b610ce7565b005b3480156103ac57600080fd5b506103c760048036038101906103c291906128fc565b610d09565b6040516103d49190612de0565b60405180910390f35b3480156103e957600080fd5b506103f2610d69565b6040516103ff9190612ebc565b60405180910390f35b34801561041457600080fd5b5061042f600480360381019061042a91906129ec565b610d6f565b60405161043c9190612d79565b60405180910390f35b34801561045157600080fd5b5061045a610d81565b6040516104679190612e3f565b60405180910390f35b34801561047c57600080fd5b50610497600480360381019061049291906126e6565b610e0f565b6040516104a49190612ebc565b60405180910390f35b3480156104b957600080fd5b506104c2610ea7565b005b3480156104d057600080fd5b506104eb60048036038101906104e691906126e6565b610ebb565b6040516104f89190612e02565b60405180910390f35b34801561050d57600080fd5b50610516610f36565b6040516105239190612d79565b60405180910390f35b34801561053857600080fd5b50610541610f60565b60405161054e9190612ebc565b60405180910390f35b34801561056357600080fd5b5061056c610f66565b6040516105799190612e3f565b60405180910390f35b34801561058e57600080fd5b506105a960048036038101906105a491906128a9565b610ff8565b6040516105b69190612e02565b60405180910390f35b6105d960048036038101906105d491906129ec565b61100e565b005b3480156105e757600080fd5b5061060260048036038101906105fd9190612829565b611186565b005b61061e600480360381019061061991906129ec565b611291565b005b61063a600480360381019061063591906127a6565b6112a3565b005b34801561064857600080fd5b50610663600480360381019061065e91906129ec565b6112f5565b6040516106709190612ea1565b60405180910390f35b34801561068557600080fd5b5061068e61136a565b60405161069b9190612e3f565b60405180910390f35b3480156106b057600080fd5b506106cb60048036038101906106c691906129ec565b6113a3565b6040516106d89190612e3f565b60405180910390f35b3480156106ed57600080fd5b506106f6611478565b6040516107039190612ebc565b60405180910390f35b34801561071857600080fd5b50610733600480360381019061072e9190612713565b61149c565b6040516107409190612e24565b60405180910390f35b34801561075557600080fd5b50610770600480360381019061076b91906126e6565b611530565b005b60006301ffc9a760e01b827bffffffffffffffffffffffffffffffffffffffffffffffffffffffff191614806107cd57506380ac58cd60e01b827bffffffffffffffffffffffffffffffffffffffffffffffffffffffff1916145b806107fd5750635b5e139f60e01b827bffffffffffffffffffffffffffffffffffffffffffffffffffffffff1916145b9050919050565b606060028054610813906131d1565b80601f016020809104026020016040519081016040528092919081815260200182805461083f906131d1565b801561088c5780601f106108615761010080835404028352916020019161088c565b820191906000526020600020905b81548152906001019060200180831161086f57829003601f168201915b5050505050905090565b60006108a1826115b4565b6108b6576108b563cf4700e460e01b611661565b5b6006600083815260200190815260200160002060000160009054906101000a900473ffffffffffffffffffffffffffffffffffffffff169050919050565b6109008282600161166b565b5050565b61090c61179a565b80600d8190555050565b600b5481565b6000610926611818565b600154600054030390507fffffffffffffffffffffffffffffffffffffffffffffffffffffffffffffffff61095961181d565b1461096657600854810190505b90565b600061097482611845565b905073ffffffffffffffffffffffffffffffffffffffff8473ffffffffffffffffffffffffffffffffffffffff161693508373ffffffffffffffffffffffffffffffffffffffff168173ffffffffffffffffffffffffffffffffffffffff16146109e9576109e863a114810060e01b611661565b5b6000806109f584611974565b91509150610a0b8187610a0661199b565b6119a3565b610a3657610a2086610a1b61199b565b61149c565b610a3557610a346359c896be60e01b611661565b5b5b610a4386868660016119e7565b8015610a4e57600082555b600560008773ffffffffffffffffffffffffffffffffffffffff1673ffffffffffffffffffffffffffffffffffffffff168152602001908152602001600020600081546001900391905081905550600560008673ffffffffffffffffffffffffffffffffffffffff1673ffffffffffffffffffffffffffffffffffffffff1681526020019081526020016000206000815460010191905081905550610b1c85610af88888876119ed565b7c020000000000000000000000000000000000000000000000000000000017611a15565b600460008681526020019081526020016000208190555060007c020000000000000000000000000000000000000000000000000000000084161415610ba4576000600185019050600060046000838152602001908152602001600020541415610ba2576000548114610ba1578360046000838152602001908152602001600020819055505b5b505b600073ffffffffffffffffffffffffffffffffffffffff8673ffffffffffffffffffffffffffffffffffffffff161690508481887fddf252ad1be2c89b69c2b068fc378daa952ba7f163c4a11628f55a4df523b3ef600080a46000811415610c1757610c1663ea553b3460e01b611661565b5b610c248787876001611a40565b50505050505050565b610c3561179a565b6000610c3f610f36565b73ffffffffffffffffffffffffffffffffffffffff1647604051610c6290612d64565b60006040518083038185875af1925050503d8060008114610c9f576040519150601f19603f3d011682016040523d82523d6000602084013e610ca4565b606091505b5050905080610cb257600080fd5b50565b610cd0838383604051806020016040528060008152506112a3565b505050565b610cdd61179a565b80600b8190555050565b610cef61179a565b80600a9080519060200190610d05929190612455565b5050565b606080600084849050905060405191508082528060051b90508060208301016040525b60008114610d5e5760006020820391508186013590506000610d4d826112f5565b905080836020860101525050610d2c565b819250505092915050565b600d5481565b6000610d7a82611845565b9050919050565b600a8054610d8e906131d1565b80601f0160208091040260200160405190810160405280929190818152602001828054610dba906131d1565b8015610e075780601f10610ddc57610100808354040283529160200191610e07565b820191906000526020600020905b815481529060010190602001808311610dea57829003601f168201915b505050505081565b60008073ffffffffffffffffffffffffffffffffffffffff168273ffffffffffffffffffffffffffffffffffffffff161415610e5657610e55638f4eb60460e01b611661565b5b67ffffffffffffffff600560008473ffffffffffffffffffffffffffffffffffffffff1673ffffffffffffffffffffffffffffffffffffffff16815260200190815260200160002054169050919050565b610eaf61179a565b610eb96000611a46565b565b60607fffffffffffffffffffffffffffffffffffffffffffffffffffffffffffffffff610ee661181d565b14610efc57610efb63bdba09d760e01b611661565b5b6000610f06611818565b90506000610f12611b0c565b90506060818314610f2b57610f28858484611b15565b90505b809350505050919050565b6000600960009054906101000a900473ffffffffffffffffffffffffffffffffffffffff16905090565b600c5481565b606060038054610f75906131d1565b80601f0160208091040260200160405190810160405280929190818152602001828054610fa1906131d1565b8015610fee5780601f10610fc357610100808354040283529160200191610fee565b820191906000526020600020905b815481529060010190602001808311610fd157829003601f168201915b5050505050905090565b6060611005848484611b15565b90509392505050565b6000811415611049576040517f9ff6d75900000000000000000000000000000000000000000000000000000000815260040160405180910390fd5b600c54811115611085576040517f25fb47d200000000000000000000000000000000000000000000000000000000815260040160405180910390fd5b600061108f61091c565b90507f000000000000000000000000000000000000000000000000000000000000000082826110be919061301e565b11156110f6576040517f96bd0f2300000000000000000000000000000000000000000000000000000000815260040160405180910390fd5b6110fe610f36565b73ffffffffffffffffffffffffffffffffffffffff163373ffffffffffffffffffffffffffffffffffffffff16146111785781600b5461113e9190613074565b341015611177576040517f45bd468900000000000000000000000000000000000000000000000000000000815260040160405180910390fd5b5b6111823383611cd3565b5050565b806007600061119361199b565b73ffffffffffffffffffffffffffffffffffffffff1673ffffffffffffffffffffffffffffffffffffffff16815260200190815260200160002060008473ffffffffffffffffffffffffffffffffffffffff1673ffffffffffffffffffffffffffffffffffffffff16815260200190815260200160002060006101000a81548160ff0219169083151502179055508173ffffffffffffffffffffffffffffffffffffffff1661124061199b565b73ffffffffffffffffffffffffffffffffffffffff167f17307eab39ab6107e8899845ad3d59bd9653f200f220920489ca2b5937696c31836040516112859190612e24565b60405180910390a35050565b61129961179a565b80600c8190555050565b6112ae848484610969565b60008373ffffffffffffffffffffffffffffffffffffffff163b146112ef576112d984848484611cf1565b6112ee576112ed63d1a57ed660e01b611661565b5b5b50505050565b6112fd6124db565b611305611818565b82106113645761131361181d565b82111561132a5761132382611e30565b9050611365565b611332611b0c565b821015611363575b61134382611e5b565b611353578160019003915061133a565b61135c82611e30565b9050611365565b5b5b919050565b6040518060400160405280600581526020017f2e6a736f6e00000000000000000000000000000000000000000000000000000081525081565b60606113ae826115b4565b6113e4576040517f77b1a4e000000000000000000000000000000000000000000000000000000000815260040160405180910390fd5b60006113ee611e7b565b9050600081511161140e5760405180602001604052806000815250611470565b8061141884611f0d565b6040518060400160405280600581526020017f2e6a736f6e00000000000000000000000000000000000000000000000000000081525060405160200161146093929190612d33565b6040516020818303038152906040525b915050919050565b7f000000000000000000000000000000000000000000000000000000000000000081565b6000600760008473ffffffffffffffffffffffffffffffffffffffff1673ffffffffffffffffffffffffffffffffffffffff16815260200190815260200160002060008373ffffffffffffffffffffffffffffffffffffffff1673ffffffffffffffffffffffffffffffffffffffff16815260200190815260200160002060009054906101000a900460ff16905092915050565b61153861179a565b600073ffffffffffffffffffffffffffffffffffffffff168173ffffffffffffffffffffffffffffffffffffffff1614156115a8576040517f08c379a000000000000000000000000000000000000000000000000000000000815260040161159f90612e61565b60405180910390fd5b6115b181611a46565b50565b6000816115bf611818565b1161165b576115cc61181d565b8211156115f6576115ef6004600084815260200190815260200160002054611fe5565b905061165c565b60005482101561165a5760005b600060046000858152602001908152602001600020549150811415611633578261162c906131a7565b9250611603565b60007c01000000000000000000000000000000000000000000000000000000008216149150505b5b5b919050565b8060005260046000fd5b600061167683610d6f565b90508180156116b857508073ffffffffffffffffffffffffffffffffffffffff1661169f61199b565b73ffffffffffffffffffffffffffffffffffffffff1614155b156116e4576116ce816116c961199b565b61149c565b6116e3576116e263cfb3b94260e01b611661565b5b5b836006600085815260200190815260200160002060000160006101000a81548173ffffffffffffffffffffffffffffffffffffffff021916908373ffffffffffffffffffffffffffffffffffffffff160217905550828473ffffffffffffffffffffffffffffffffffffffff168273ffffffffffffffffffffffffffffffffffffffff167f8c5be1e5ebec7d5bd14f71427d1e84f3dd0314c0f7b2291e5b200ac8c7c3b92560405160405180910390a450505050565b6117a2612026565b73ffffffffffffffffffffffffffffffffffffffff166117c0610f36565b73ffffffffffffffffffffffffffffffffffffffff1614611816576040517f08c379a000000000000000000000000000000000000000000000000000000000815260040161180d90612e81565b60405180910390fd5b565b600090565b60007fffffffffffffffffffffffffffffffffffffffffffffffffffffffffffffffff905090565b600081611850611818565b1161195e576004600083815260200190815260200160002054905061187361181d565b82111561189e5761188381611fe5565b1561188d5761196f565b61189d63df2d9b4260e01b611661565b5b60008114156119305760005482106118c1576118c063df2d9b4260e01b611661565b5b5b600460008360019003935083815260200190815260200160002054905060008114156118ed5761192b565b60007c01000000000000000000000000000000000000000000000000000000008216141561191a5761196f565b61192a63df2d9b4260e01b611661565b5b6118c2565b60007c01000000000000000000000000000000000000000000000000000000008216141561195d5761196f565b5b61196e63df2d9b4260e01b611661565b5b919050565b60008060006006600085815260200190815260200160002090508092508254915050915091565b600033905090565b600073ffffffffffffffffffffffffffffffffffffffff8316925073ffffffffffffffffffffffffffffffffffffffff821691508382148383141790509392505050565b50505050565b60008060e883901c905060e8611a0486868461202e565b62ffffff16901b9150509392505050565b600073ffffffffffffffffffffffffffffffffffffffff83169250814260a01b178317905092915050565b50505050565b6000600960009054906101000a900473ffffffffffffffffffffffffffffffffffffffff16905081600960006101000a81548173ffffffffffffffffffffffffffffffffffffffff021916908373ffffffffffffffffffffffffffffffffffffffff1602179055508173ffffffffffffffffffffffffffffffffffffffff168173ffffffffffffffffffffffffffffffffffffffff167f8be0079c531659141344cd1fd0a4f28419497f9722a3daafe3b4186f6b6457e060405160405180910390a35050565b60008054905090565b6060818310611b2f57611b2e6332c1995a60e01b611661565b5b611b37611818565b831015611b4957611b46611818565b92505b6000611b53611b0c565b905060007fffffffffffffffffffffffffffffffffffffffffffffffffffffffffffffffff611b8061181d565b1415611b8c5781611b8e565b835b9050808410611b9b578093505b6000611ba687610e0f565b9050848610611bb457600090505b60008114611cc9578086860311611bcb5785850390505b600060405194506001820160051b85019050806040526000611bec886112f5565b905060008160400151611c0157816000015190505b60005b7fffffffffffffffffffffffffffffffffffffffffffffffffffffffffffffffff611c2d61181d565b14611c5d57868a1415611c48576001611c4461181d565b0199505b611c5061181d565b8a1115611c5c57600091505b5b611c668a611e30565b9250604083015160008114611c7e5760009250611ca4565b835115611c8a57835192505b8b831860601b611ca3576001820191508a8260051b8a01525b5b5060018a01995083604052888a1480611cbc57508481145b15611c0457808852505050505b5050509392505050565b611ced828260405180602001604052806000815250612037565b5050565b60008373ffffffffffffffffffffffffffffffffffffffff1663150b7a02611d1761199b565b8786866040518563ffffffff1660e01b8152600401611d399493929190612d94565b602060405180830381600087803b158015611d5357600080fd5b505af1925050508015611d8457506040513d601f19601f82011682018060405250810190611d819190612976565b60015b611ddd573d8060008114611db4576040519150601f19603f3d011682016040523d82523d6000602084013e611db9565b606091505b50600081511415611dd557611dd463d1a57ed660e01b611661565b5b805181602001fd5b63150b7a0260e01b7bffffffffffffffffffffffffffffffffffffffffffffffffffffffff1916817bffffffffffffffffffffffffffffffffffffffffffffffffffffffff191614915050949350505050565b611e386124db565b611e5460046000848152602001908152602001600020546120b3565b9050919050565b600080600460008481526020019081526020016000205414159050919050565b6060600a8054611e8a906131d1565b80601f0160208091040260200160405190810160405280929190818152602001828054611eb6906131d1565b8015611f035780601f10611ed857610100808354040283529160200191611f03565b820191906000526020600020905b815481529060010190602001808311611ee657829003601f168201915b5050505050905090565b606060006001611f1c84612169565b01905060008167ffffffffffffffff811115611f3b57611f3a6132c1565b5b6040519080825280601f01601f191660200182016040528015611f6d5781602001600182028036833780820191505090505b509050600082602001820190505b600115611fda578080600190039150507f3031323334353637383961626364656600000000000000000000000000000000600a86061a8153600a8581611fc457611fc3613263565b5b0494506000851415611fd557611fda565b611f7b565b819350505050919050565b60007c0100000000000000000000000000000000000000000000000000000000821673ffffffffffffffffffffffffffffffffffffffff8316119050919050565b600033905090565b60009392505050565b61204183836122bc565b60008373ffffffffffffffffffffffffffffffffffffffff163b146120ae57600080549050600083820390505b6120816000868380600101945086611cf1565b6120965761209563d1a57ed660e01b611661565b5b81811061206e5781600054146120ab57600080fd5b50505b505050565b6120bb6124db565b81816000019073ffffffffffffffffffffffffffffffffffffffff16908173ffffffffffffffffffffffffffffffffffffffff168152505060a082901c816020019067ffffffffffffffff16908167ffffffffffffffff168152505060007c01000000000000000000000000000000000000000000000000000000008316141581604001901515908115158152505060e882901c816060019062ffffff16908162ffffff1681525050919050565b600080600090507a184f03e93ff9f4daa797ed6e38ed64bf6a1f01000000000000000083106121c7577a184f03e93ff9f4daa797ed6e38ed64bf6a1f01000000000000000083816121bd576121bc613263565b5b0492506040810190505b6d04ee2d6d415b85acef81000000008310612204576d04ee2d6d415b85acef810000000083816121fa576121f9613263565b5b0492506020810190505b662386f26fc10000831061223357662386f26fc10000838161222957612228613263565b5b0492506010810190505b6305f5e100831061225c576305f5e100838161225257612251613263565b5b0492506008810190505b612710831061228157612710838161227757612276613263565b5b0492506004810190505b606483106122a4576064838161229a57612299613263565b5b0492506002810190505b600a83106122b3576001810190505b80915050919050565b60008054905060008214156122dc576122db63b562e8dd60e01b611661565b5b6122e960008483856119e7565b612309836122fa60008660006119ed565b61230385612445565b17611a15565b6004600083815260200190815260200160002081905550600160406001901b178202600560008573ffffffffffffffffffffffffffffffffffffffff1673ffffffffffffffffffffffffffffffffffffffff16815260200190815260200160002060008282540192505081905550600073ffffffffffffffffffffffffffffffffffffffff8473ffffffffffffffffffffffffffffffffffffffff1616905060008114156123c2576123c1632e07630060e01b611661565b5b6000838301905060008390506123d661181d565b6001830311156123f1576123f06381647e3a60e01b611661565b5b5b808360007fddf252ad1be2c89b69c2b068fc378daa952ba7f163c4a11628f55a4df523b3ef600080a4818160010191508114156123f257816000819055505050506124406000848385611a40565b505050565b60006001821460e11b9050919050565b828054612461906131d1565b90600052602060002090601f01602090048101928261248357600085556124ca565b82601f1061249c57805160ff19168380011785556124ca565b828001600101855582156124ca579182015b828111156124c95782518255916020019190600101906124ae565b5b5090506124d7919061252a565b5090565b6040518060800160405280600073ffffffffffffffffffffffffffffffffffffffff168152602001600067ffffffffffffffff168152602001600015158152602001600062ffffff1681525090565b5b8082111561254357600081600090555060010161252b565b5090565b600061255a61255584612efc565b612ed7565b905082815260208101848484011115612576576125756132ff565b5b612581848285613165565b509392505050565b600061259c61259784612f2d565b612ed7565b9050828152602081018484840111156125b8576125b76132ff565b5b6125c3848285613165565b509392505050565b6000813590506125da8161339a565b92915050565b60008083601f8401126125f6576125f56132f5565b5b8235905067ffffffffffffffff811115612613576126126132f0565b5b60208301915083602082028301111561262f5761262e6132fa565b5b9250929050565b600081359050612645816133b1565b92915050565b60008135905061265a816133c8565b92915050565b60008151905061266f816133c8565b92915050565b600082601f83011261268a576126896132f5565b5b813561269a848260208601612547565b91505092915050565b600082601f8301126126b8576126b76132f5565b5b81356126c8848260208601612589565b91505092915050565b6000813590506126e0816133df565b92915050565b6000602082840312156126fc576126fb613309565b5b600061270a848285016125cb565b91505092915050565b6000806040838503121561272a57612729613309565b5b6000612738858286016125cb565b9250506020612749858286016125cb565b9150509250929050565b60008060006060848603121561276c5761276b613309565b5b600061277a868287016125cb565b935050602061278b868287016125cb565b925050604061279c868287016126d1565b9150509250925092565b600080600080608085870312156127c0576127bf613309565b5b60006127ce878288016125cb565b94505060206127df878288016125cb565b93505060406127f0878288016126d1565b925050606085013567ffffffffffffffff81111561281157612810613304565b5b61281d87828801612675565b91505092959194509250565b600080604083850312156128405761283f613309565b5b600061284e858286016125cb565b925050602061285f85828601612636565b9150509250929050565b600080604083850312156128805761287f613309565b5b600061288e858286016125cb565b925050602061289f858286016126d1565b9150509250929050565b6000806000606084860312156128c2576128c1613309565b5b60006128d0868287016125cb565b93505060206128e1868287016126d1565b92505060406128f2868287016126d1565b9150509250925092565b6000806020838503121561291357612912613309565b5b600083013567ffffffffffffffff81111561293157612930613304565b5b61293d858286016125e0565b92509250509250929050565b60006020828403121561295f5761295e613309565b5b600061296d8482850161264b565b91505092915050565b60006020828403121561298c5761298b613309565b5b600061299a84828501612660565b91505092915050565b6000602082840312156129b9576129b8613309565b5b600082013567ffffffffffffffff8111156129d7576129d6613304565b5b6129e3848285016126a3565b91505092915050565b600060208284031215612a0257612a01613309565b5b6000612a10848285016126d1565b91505092915050565b6000612a258383612c4d565b60808301905092915050565b6000612a3d8383612d06565b60208301905092915050565b612a52816130ce565b82525050565b612a61816130ce565b82525050565b6000612a7282612f7e565b612a7c8185612fc4565b9350612a8783612f5e565b8060005b83811015612ab8578151612a9f8882612a19565b9750612aaa83612faa565b925050600181019050612a8b565b5085935050505092915050565b6000612ad082612f89565b612ada8185612fd5565b9350612ae583612f6e565b8060005b83811015612b16578151612afd8882612a31565b9750612b0883612fb7565b925050600181019050612ae9565b5085935050505092915050565b612b2c816130e0565b82525050565b612b3b816130e0565b82525050565b6000612b4c82612f94565b612b568185612fe6565b9350612b66818560208601613174565b612b6f8161330e565b840191505092915050565b6000612b8582612f9f565b612b8f8185613002565b9350612b9f818560208601613174565b612ba88161330e565b840191505092915050565b6000612bbe82612f9f565b612bc88185613013565b9350612bd8818560208601613174565b80840191505092915050565b6000612bf1602683613002565b9150612bfc8261331f565b604082019050919050565b6000612c14602083613002565b9150612c1f8261336e565b602082019050919050565b6000612c37600083612ff7565b9150612c4282613397565b600082019050919050565b608082016000820151612c636000850182612a49565b506020820151612c766020850182612d24565b506040820151612c896040850182612b23565b506060820151612c9c6060850182612cf7565b50505050565b608082016000820151612cb86000850182612a49565b506020820151612ccb6020850182612d24565b506040820151612cde6040850182612b23565b506060820151612cf16060850182612cf7565b50505050565b612d0081613138565b82525050565b612d0f81613147565b82525050565b612d1e81613147565b82525050565b612d2d81613151565b82525050565b6000612d3f8286612bb3565b9150612d4b8285612bb3565b9150612d578284612bb3565b9150819050949350505050565b6000612d6f82612c2a565b9150819050919050565b6000602082019050612d8e6000830184612a58565b92915050565b6000608082019050612da96000830187612a58565b612db66020830186612a58565b612dc36040830185612d15565b8181036060830152612dd58184612b41565b905095945050505050565b60006020820190508181036000830152612dfa8184612a67565b905092915050565b60006020820190508181036000830152612e1c8184612ac5565b905092915050565b6000602082019050612e396000830184612b32565b92915050565b60006020820190508181036000830152612e598184612b7a565b905092915050565b60006020820190508181036000830152612e7a81612be4565b9050919050565b60006020820190508181036000830152612e9a81612c07565b9050919050565b6000608082019050612eb66000830184612ca2565b92915050565b6000602082019050612ed16000830184612d15565b92915050565b6000612ee1612ef2565b9050612eed8282613203565b919050565b6000604051905090565b600067ffffffffffffffff821115612f1757612f166132c1565b5b612f208261330e565b9050602081019050919050565b600067ffffffffffffffff821115612f4857612f476132c1565b5b612f518261330e565b9050602081019050919050565b6000819050602082019050919050565b6000819050602082019050919050565b600081519050919050565b600081519050919050565b600081519050919050565b600081519050919050565b6000602082019050919050565b6000602082019050919050565b600082825260208201905092915050565b600082825260208201905092915050565b600082825260208201905092915050565b600081905092915050565b600082825260208201905092915050565b600081905092915050565b600061302982613147565b915061303483613147565b9250827fffffffffffffffffffffffffffffffffffffffffffffffffffffffffffffffff0382111561306957613068613234565b5b828201905092915050565b600061307f82613147565b915061308a83613147565b9250817fffffffffffffffffffffffffffffffffffffffffffffffffffffffffffffffff04831182151516156130c3576130c2613234565b5b828202905092915050565b60006130d982613118565b9050919050565b60008115159050919050565b60007fffffffff0000000000000000000000000000000000000000000000000000000082169050919050565b600073ffffffffffffffffffffffffffffffffffffffff82169050919050565b600062ffffff82169050919050565b6000819050919050565b600067ffffffffffffffff82169050919050565b82818337600083830152505050565b60005b83811015613192578082015181840152602081019050613177565b838111156131a1576000848401525b50505050565b60006131b282613147565b915060008214156131c6576131c5613234565b5b600182039050919050565b600060028204905060018216806131e957607f821691505b602082108114156131fd576131fc613292565b5b50919050565b61320c8261330e565b810181811067ffffffffffffffff8211171561322b5761322a6132c1565b5b80604052505050565b7f4e487b7100000000000000000000000000000000000000000000000000000000600052601160045260246000fd5b7f4e487b7100000000000000000000000000000000000000000000000000000000600052601260045260246000fd5b7f4e487b7100000000000000000000000000000000000000000000000000000000600052602260045260246000fd5b7f4e487b7100000000000000000000000000000000000000000000000000000000600052604160045260246000fd5b600080fd5b600080fd5b600080fd5b600080fd5b600080fd5b600080fd5b6000601f19601f8301169050919050565b7f4f776e61626c653a206e6577206f776e657220697320746865207a65726f206160008201527f6464726573730000000000000000000000000000000000000000000000000000602082015250565b7f4f776e61626c653a2063616c6c6572206973206e6f7420746865206f776e6572600082015250565b50565b6133a3816130ce565b81146133ae57600080fd5b50565b6133ba816130e0565b81146133c557600080fd5b50565b6133d1816130ec565b81146133dc57600080fd5b50565b6133e881613147565b81146133f357600080fd5b5056fea264697066735822122034aa8ec4848995b07af0a66dbeb8f5322932f2540fb5bec1dabd45b5a619892964736f6c63430008070033",
  "linkReferences": {},
  "deployedLinkReferences": {}
}